:100000000C9444010C9475010C9475010C947501C9
:100010000C9475010C9475010C9475010C94750188
:100020000C9475010C94E1040C94E1040C94E1042B
:100030000C9475010C9475010C9475010C94750168
:100040000C9475010C9475010C9475010C94750158
:100050000C9475010C9475010C9475010C94970423
:100060000C9475010C9461040C9437040C94750184
:100070000C9475010C9475010C9475010C94750128
:100080000C9475010C9475010C9475010C94750118
:100090000C9475010C9475010C9475010C94750108
:1000A0000C9475010C9475010C9475010C947501F8
:1000B0000C9475010C9475010C9475010C947501E8
:1000C0000C9475010C9475010C9475010C947501D8
:1000D0000C9475010C9475010C9475010C947501C8
:1000E0000C9475010C94E9050C94B0050C94DF0593
:1000F0000C94BD050C941B030C9490030C94B9054F
:100100000C9478030C94C3050C94D9050C94D10578
:100110000C948D050C94E3050C94F1080C94B10338
:100120000C94CB050C94D5050C94AC050C945A0298
:100130000C94C7050C9477010C94B3050C940D0234
:100140000C94A4050C94A4010C941C030C94D501EC
:100150000C94A8050C94C7010C9492050C94B3015F
:100160000C94030300000A0B02090C0D0E08070390
:10017000040100000000000000000000000000007A
:10018000000000000000000000000000000000006F
:10019000121110000000000000000000000000002C
:1001A000000000000000000000000000200023000C
:1001B000260029002C002F0032000001000003015E
:1001C0000601090100002100240027002A002D005B
:1001D0003000330001010000040107010A010000A2
:1001E0002200250028002B002E00310034000201DF
:1001F0000000050108010B010505050507050808B4
:100200000808020202020A0A0808040404040101A0
:1002100001010101010103030303030303030407B5
:1002200007070C0C0C0C0C0C0C0C0202020206064C
:100230000606060606060B0B0B0B0B0B0B0B01023F
:1002400010202008081020401020408002010201E8
:1002500008040201010204081020408080402010A0
:1002600008040201800402018040201008040201F9
:100270000804020101020408102040800102040861
:1002800010204080E905F10811241FBECFEFD1E214
:10029000DEBFCDBF00E00CBF13E0A0E0B2E0E0EBBA
:1002A000F2E100E00BBF02C007900D92AA3FB10738
:1002B000D9F725E0AAEFB3E001C01D92A330B20741
:1002C000E1F711E0C3E4D1E000E006C021970109A5
:1002D000802FFE010E942109C234D10780E0080767
:1002E000A9F70E94D2060C9446090C940000AF9224
:1002F000BF92CF92DF92EF92FF920F931F93CF9313
:10030000DF936C017B018B01040F151FEB015E0174
:10031000AE18BF08C017D10759F06991D601ED9109
:10032000FC910190F081E02DC6011995892B79F798
:10033000C501DF91CF911F910F91FF90EF90DF905A
:10034000CF90BF90AF900895FC01538D448D252F21
:1003500030E0842F90E0821B930B541710F0CF965F
:10036000089501970895FC01918D828D981761F091
:10037000A28DAE0FBF2FB11D5D968C91928D9F5FA8
:100380009F73928F90E008958FEF9FEF0895FC0187
:10039000918D828D981731F0828DE80FF11D858D3A
:1003A00090E008958FEF9FEF0895FC01918D228DCD
:1003B000892F90E0805C9F4F821B91098F73992752
:1003C000089587E494E00E94D50121E0892B09F487
:1003D00020E0822F0895FC01A48DA80FB92FB11D34
:1003E000A35ABF4F2C91848D90E001968F7399276B
:1003F000848FA689B7892C93A089B1898C91837049
:1004000080648C93938D848D981306C00288F38941
:10041000E02D80818F7D80830895EF92FF920F936E
:100420001F93CF93DF93EC0181E0888F9B8D8C8DA0
:1004300098131AC0E889F989808185FF15C09FB794
:10044000F894EE89FF896083E889F9898081837057
:10045000806480839FBF81E090E0DF91CF911F9106
:100460000F91FF90EF900895F62E0B8D10E00F5F27
:100470001F4F0F731127E02E8C8D8E110CC00FB6FD
:1004800007FCFACFE889F989808185FFF5CFCE0195
:100490000E94EB01F1CFEB8DEC0FFD2FF11DE35A24
:1004A000FF4FF0829FB7F8940B8FEA89FB89808118
:1004B0008062CFCFCF93DF93EC01888D8823B9F092
:1004C000AA89BB89E889F9898C9185FD03C080815F
:1004D00086FD0DC00FB607FCF7CF8C9185FFF2CFDC
:1004E000808185FFEDCFCE010E94EB01E9CFDF9146
:1004F000CF91089580E090E0892B29F00E94E101DE
:1005000081110E94000080E090E0892B49F080E09A
:1005100090E0892B29F00E94000081110E940000C8
:1005200080E090E0892B49F080E090E0892B29F071
:100530000E94000081110E94000080E090E0892B61
:1005400049F080E090E0892B29F00E9400008111A1
:100550000C94000008953FB7F89480913F04909167
:100560004004A0914104B091420426B5A89B05C067
:100570002F3F19F00196A11DB11D3FBFBA2FA92F22
:10058000982F8827BC01CD01620F711D811D911D1F
:1005900042E0660F771F881F991F4A95D1F708958B
:1005A0008F929F92AF92BF92CF92DF92EF92FF9283
:1005B0006B017C010E94AB024B015C01C114D104B0
:1005C000E104F104B9F00E94AB02681979098A09C3
:1005D0009B09683E73408105910580F321E0C21AB2
:1005E000D108E108F10888EE880E83E0981EA11C6E
:1005F000B11CE4CFFF90EF90DF90CF90BF90AF9011
:100600009F908F90089520914504309146042817BB
:10061000390771F49091430480914404981741F094
:10062000E0914304F0E0E650FC4F808190E00895B3
:100630008FEF9FEF08950895EF92FF920F931F930E
:10064000CF93DF93DC015C96ED90FC905D97E11415
:10065000F10479F481E090E013969C938E931297C5
:1006600090E080E0DF91CF911F910F91FF90EF908C
:1006700008955196ED91FC91529750968C91509718
:10068000982F90950FB75E962C915E97122F12704F
:1006900021FD6095F8942081112319F1282B2083E6
:1006A000E7012197F1F728E0462F50E0308160FF05
:1006B0001AC0382B3083E7012197F1F7BA017595FD
:1006C0006795215089F7112381F0808189238083E8
:1006D0000FBF5C968D919C910197F1F781E090E0BE
:1006E000C1CF2923DCCF3923E5CF9081892BEFCFF0
:1006F00020914504309146042817390771F4809100
:1007000044042091430490E0805C9F4F821B910938
:1007100060E470E00E940D09089590E080E0089583
:10072000209145043091460428173907B9F4909177
:10073000430480914404981789F0E0914304F0E069
:10074000E650FC4F80812091430430E02F5F3F4F03
:100750002F7333272093430490E008958FEF9FEF8A
:10076000089590E080E00895FB0101900020E9F7F2
:100770003197AF01461B570BDC01ED91FC910280D4
:10078000F381E02D1994CF93DF93BC0187E494E0CB
:100790000E94B403EC0165E173E087E494E00E94F9
:1007A000B4038C0F9D1FDF91CF910895CF92DF92FC
:1007B000EF92FF920F931F93CF93DF93CDB7DEB7E6
:1007C000C456D1090FB6F894DEBF0FBECDBFBC0131
:1007D000FC0101900020E9F731978F01081B190BEC
:1007E0008DEF89831A8293E0900F9B8381E08C8345
:1007F0001D828CEFF92EF826FB011127CF01861BF5
:10080000970B8017910718F48191F826F7CFA8016C
:10081000CE0106960E943D09E6E0F0E0EC0FFD1FD8
:10082000E00FF11FF082CE0101966C017C010A5F9E
:100830001F4FC7018C199D098017910740F4F701DC
:1008400061917F0184EE94E00E941C03F2CFCC59A9
:10085000DF4F0FB6F894DEBF0FBECDBFDF91CF9153
:100860001F910F91FF90EF90DF90CF9008951F920E
:100870000F920FB60F9211240BB60F922F933F9346
:100880004F935F936F937F938F939F93AF93BF9398
:10089000EF93FF9387E494E00E94EB01FF91EF91C7
:1008A000BF91AF919F918F917F916F915F914F9188
:1008B0003F912F910F900BBE0F900FBE0F901F9086
:1008C00018951F920F920FB60F9211240BB60F922C
:1008D0002F938F939F93EF93FF93E0915704F091A1
:1008E00058048081E0915D04F0915E0482FD1DC09A
:1008F0009081809160048F5F8F73209161048217D3
:1009000041F0E0916004F0E0E95BFB4F958F80934C
:100910006004FF91EF919F918F912F910F900BBEEB
:100920000F900FBE0F901F9018958081F2CF1F92ED
:100930000F920FB60F9211242F933F938F939F9393
:10094000AF93BF9380913B0490913C04A0913D04F0
:10095000B0913E0430913A0423E0230F2D3758F52F
:100960000196A11DB11D20933A0480933B049093FE
:100970003C04A0933D04B0933E0480913F049091C9
:100980004004A0914104B09142040196A11DB11D03
:1009900080933F0490934004A0934104B093420499
:1009A000BF91AF919F918F913F912F910F900FBE6B
:1009B0000F901F90189526E8230F0296A11DB11DD8
:1009C000D2CF1F920F920FB60F9211240BB60F9237
:1009D0002F933F934F935F936F937F938F939F9347
:1009E000AF93BF93EF93FF93E0914504F0914604DA
:1009F000309749F0A685B7858585968D91FF16C0FD
:100A00009C918923B1F4FF91EF91BF91AF919F9198
:100A10008F917F916F915F914F913F912F910F90A7
:100A20000BBE0F900FBE0F901F9018959C918923BD
:100A300051F7A389B4899C918589809589238C93EA
:100A4000868997890197F1F7608D718DA685B785A5
:100A5000558538E020E0CB010197F1F7822F90E037
:100A600095958795282F4C91452309F020683150A2
:100A700091F7868D81FD20958091440490E0019648
:100A80008F73992730914304381799F0A09144044B
:100A9000B0E0A650BC4F2C9380934404828D938D7C
:100AA0000197F1F7A389B4898C919589892B8C934F
:100AB000AACF868D8160868FF1CF282F30E0F90193
:100AC000EC59FE4F9491F901E25CFD4F449128509E
:100AD0003E4FF9012491222309F435C0992311F1E5
:100AE00091509231F8F4E92FF0E08827E558FA4F59
:100AF0008F4F0C942109AC05B0058D05A405A80500
:100B00009205B305B905BD05C305C705CB05D105DC
:100B1000D5059205D905DF05E305809180008F7723
:100B200080938000E22FF0E0EE0FFF1FE252FE4FB5
:100B3000A591B4918FB7F894EC91611148C040959C
:100B40004E234C938FBF0895809180008F7DE8CF16
:100B500080918000877FE4CF84B58F7784BDE2CF1A
:100B600084B58F7DFBCF8091B0008F778093B000EC
:100B7000D9CF8091B0008F7DF9CF809190008F7791
:100B800080939000CFCF809190008F7DF9CF80919E
:100B90009000877FF5CF8091A0008F778093A00091
:100BA000C1CF8091A0008F7DF9CF8091A000877F79
:100BB000F5CF809120018F7780932001B3CF809172
:100BC00020018F7DF9CF80912001877FF5CF4E2BBB
:100BD000B8CF0F931F93CF93DF9310924A041092D4
:100BE000490488EE93E0A0E0B0E080934B0490933A
:100BF0004C04A0934D04B0934E0425EF32E03093A3
:100C000048042093470425EC30E0309354042093AB
:100C1000530424EC30E0309356042093550420EC28
:100C200030E0309358042093570421EC30E03093A7
:100C30005A042093590422EC30E030935C04209352
:100C40005B0426EC30E030935E0420935D04109248
:100C50006004109261041092620410926304109276
:100C6000E7041092E6048093E8049093E904A093CB
:100C7000EA04B093EB0487E093E09093E50480935B
:100C8000E4041092FB041092FA041092FD041092F6
:100C9000FC041092FF041092FE04109201051092C1
:100CA0000005609102056E7F6D7F60930205669579
:100CB000617081E0682787E10E945D0545E552E0AB
:100CC000FA0164918FE092E0FC012491222399F0D3
:100CD00030E0220F331FF901EC53FE4FA591B49180
:100CE000F901E252FE4F259134912FB7F8943C91CF
:100CF000632B6C932FBFFA0144914093F404FC01E1
:100D00008491E82FF0E0EE0FFF1FE252FE4F859135
:100D100094919093F6048093F50404E512E0F801B1
:100D20002491CEE0D2E0FE0184918823C9F090E0C6
:100D3000880F991FFC01EC53FE4FA591B491FC0163
:100D4000E252FE4F459154913FB7F8949C91822F07
:100D5000809598239C93FA019081892380833FBFDB
:100D60008091020581FD04C061E086E10E945D057D
:100D700086E18093F004F80104910093F104FE01F0
:100D8000C491EC2FF0E0EE0FFF1FE655FE4F85916A
:100D900094919093F3048093F204DF91CF911F918B
:100DA0000F910895789484B5826084BD84B5816084
:100DB00084BD85B5826085BD85B5816085BD809126
:100DC0006E00816080936E0010928100809181009E
:100DD0008260809381008091810081608093810096
:100DE000809180008160809380008091B100846058
:100DF0008093B1008091B00081608093B0008091B9
:100E00009100826080939100809191008160809335
:100E10009100809190008160809390008091A1006A
:100E200082608093A1008091A10081608093A100E5
:100E30008091A00081608093A00080912101826058
:100E40008093210180912101816080932101809113
:100E5000200181608093200180917A0084608093DA
:100E60007A0080917A00826080937A0080917A0083
:100E7000816080937A0080917A00806880937A0004
:100E80001092C100E0915704F091580482E08083F1
:100E9000E0915304F09154041082E0915504F091D4
:100EA00056048FEC808310925F04E0915B04F09114
:100EB0005C0486E08083E0915904F0915A048081BB
:100EC00080618083E0915904F0915A0480818860A8
:100ED0008083E0915904F0915A0480818068808376
:100EE000E0915904F0915A0480818F7D808388E1DC
:100EF00093E00E94C3031092FF041092FE0410922C
:100F0000FD041092FC041092FB041092FA048DE987
:100F100091E090930105809300058091F00496EF95
:100F2000980F943048F02EEC280F243028F022EC53
:100F3000280F283008F061C02DEB30E03093FB041F
:100F40002093FA042BE931E03093FD042093FC0454
:100F50002CE231E03093FF042093FE04943050F0F3
:100F60002EEC280F243030F022EC280FF0E0E0E0E7
:100F7000283010F4E8E6F0E02081943028F032ECDC
:100F8000380F383008F4B6C031E0232B943048F0E5
:100F90009EEC980F943028F08E53F0E0E0E088301B
:100FA00010F4E8E6F0E020832091F00436EF320FF1
:100FB000343008F4A1C08EEC820F843008F49CC059
:100FC00082EC820F883008F49AC090E080E0909321
:100FD000F8048093F704343008F094C02650330BA3
:100FE00081E001C0880F2A95EAF78093F904809187
:100FF0000005909101050197F1F78091FE04909111
:10100000FF04892B49F1E0914504F091460484E006
:10101000E43EF80709F1309739F0A389B4899C912F
:101020008589809589238C93809102058E7F80939A
:101030000205109244041092430484EE94E09093CD
:10104000460480934504E091F704F091F804808110
:101050009091F904892B808362E273E084EE94E03E
:101060000E94B40362E370E080E090E00E94D0024E
:1010700067E273E084EE94E00E94B40362E370E000
:1010800080E090E00E94D00280E092E00E94D603CF
:101090006CEA7DE080E090E00E94D00287E494E07A
:1010A0000E94D501892B19F187E494E00E94B301D5
:1010B0008093F002682F87E494E00E940D0265E1BE
:1010C00073E087E494E00E94B4038091F0028134DD
:1010D00071F58CED92E00E94D6038CE293E00E94C1
:1010E000C3036CEA7DE080E090E00E94D0020E94A1
:1010F0007A02D4CF34E049CF8BE690E068CF8DE61A
:1011000090E065CF88E0223309F46FCF84E0233389
:1011100009F46BCF82E0243309F467CF82EC820FAD
:10112000883018F42E53330B5BCF81E05ECF8234CE
:1011300039F488EC92E00E94D60386E393E0CFCFA7
:10114000833439F484EB92E00E94D6038EE393E07B
:10115000C6CF843439F480EA92E00E94D6038BE44F
:1011600093E0BDCF853439F48CE892E00E94D60339
:1011700087E693E0B4CF863439F488E792E00E94A2
:10118000D60385E893E0ABCF873439F484E692E068
:101190000E94D6038BE893E0A2CF883439F480E52F
:1011A00092E00E94D60386EA93E099CF893439F41D
:1011B0008CE392E00E94D60383EC93E090CF8A34D4
:1011C00039F488E292E00E94D60382ED93E087CF63
:1011D0008B3471F38C34A9F381EE93E00E94C30346
:1011E00086CF87E093E09093E5048093E4048091B8
:1011F000450490914604845E944071F4E091F704B4
:10120000F091F80490818091F9048095892380837E
:101210001092460410924504089597FB072E16F489
:10122000009407D077FD09D00E94290907FC05D05A
:101230003EF4909581959F4F0895709561957F4FED
:101240000895EE0FFF1F881F8BBF0790F691E02DCA
:101250001994AA1BBB1B51E107C0AA1FBB1FA617ED
:10126000B70710F0A61BB70B881F991F5A95A9F74F
:1012700080959095BC01CD010895FB01DC0102C071
:1012800001900D9241505040D8F7089511E0C3E409
:10129000D1E000E006C0802FFE010E9421092196C6
:1012A000011DC434D10780E00807A9F7F894FFCFE7
:1012B000BBB6D3ADCAB9D3C3D6C7C4DCBEFCC6EC7B
:1012C000D6FACAD6000000000000000000000000AE
:1012D0000000000000000000BAECB7BDC6E5D7D39F
:1012E000D5F3CDF60000000000000000C2CCB7BD71
:1012F000C6E5D7D3D5F3CDF600000000000000000E
:10130000C2CCB7BDCBBEC1EED5F3CDF60000000018
:1013100000000000BAECB7BDCBBEC1EED5F3CDF6F0
:101320000000000000000000CBABB7BDC6E5D7D37E
:10133000D5F3CDF60000000000000000C2CCB7BD20
:10134000CBBEC1EEB1BBD5A8CBC0000000000000F1
:10135000BAECB7BDCBBEC1EEB1BBD5A8CBC00000C7
:1013600000000000CBABB7BDCBBEC1EED5F3CDF6D0
:101370000000000000000000BAECB7BDBBF1CAA439
:10138000000000000000000000000000C2CCB7BD5B
:10139000BBF1CAA400000000000000000000000033
:1013A0005A000000000D027701A4015A02D501B3D2
:1013B00001C701000000001C037701B1031B037883
:1013C00003900303030D0A0053657269616C204F9B
:1013D0004E003C533E32003C563E3300677265651A
:1013E0006E5F77696E007265645F77696E00657124
:1013F00075616C5F73696C696E67007265645F73B9
:10140000696C696E675F6B696C6C65645F62795F5C
:101410007A686164616E00677265656E5F73696C9E
:10142000696E675F6B696C6C65645F62795F7A682F
:101430006164616E00657175616C007265645F73F3
:10144000696C696E675F6B696C6C65645F62795F1C
:1014500064696C656900677265656E5F73696C6964
:101460006E675F6B696C6C65645F62795F64696C01
:101470006569007265645F6B696C6C5F6772656556
:101480006E00677265656E5F6B696C6C5F72656438
:10149000004572726F723A20696E707574436861AC
:0A14A0007220696E76616C696400C9
:00000001FF
