:100000000C9438010C9469010C9469010C946901F9
:100010000C9469010C9469010C9469010C946901B8
:100020000C9469010C944B030C944B030C944B03FC
:100030000C9469010C9469010C9469010C94690198
:100040000C9469010C9469010C9469010C94690188
:100050000C9469010C9469010C9469010C940103DE
:100060000C9469010C9469010C9469010C94690168
:100070000C9469010C9469010C9469010C94690158
:100080000C9469010C9469010C9469010C94690148
:100090000C9469010C9469010C9469010C94690138
:1000A0000C9469010C9469010C9469010C94690128
:1000B0000C9469010C9469010C9469010C94690118
:1000C0000C9469010C9469010C9469010C94690108
:1000D0000C9469010C9469010C9469010C946901F8
:1000E0000C9469010C9408020C94F7030C944304DB
:1000F0000C944D040C9423040C946B010C941D047B
:100100000C9431040C942D040C940E040C940702EE
:100110000C9416040C943B040C9427040C946D0668
:100120000C949D020C94EF010C9449040C9464020D
:100130000C9412040C943F040C9435040C947C022F
:100140000C94FC030C94C2050C941A0400002000CB
:100150002300260029002C002F003200000100009F
:1001600003010601090100002100240027002A00E4
:100170002D003000330001010000040107010A01D5
:1001800000002200250028002B002E003100340042
:1001900002010000050108010B0105050505070521
:1001A00008080808020202020A0A080804040404F3
:1001B000010101010101010103030303030303031F
:1001C000040707070C0C0C0C0C0C0C0C02020202AE
:1001D00006060606060606060B0B0B0B0B0B0B0B97
:1001E0000102102020080810204010204080020149
:1001F000020108040201010204081020408080402E
:10020000201008040201800402018040201008042C
:1002100002010804020101020408102040800102CA
:1002200004081020408000000A0B02090C0D0E0883
:1002300007030401000000000000000000000000AF
:1002400000000000000000000000000000000000AE
:10025000000012111000000000000000000000006B
:10026000000000000000000000000000C2056D0654
:1002700011241FBECFEFD1E2DEBFCDBF00E00CBF27
:1002800012E0A0E0B2E0E8EAFDE000E00BBF02C04F
:1002900007900D92A236B107D9F722E0A2E6B2E0AC
:1002A00001C01D92AE3CB207E1F711E0C7E3D1E017
:1002B00000E006C021970109802FFE010E949D06E3
:1002C000C633D10780E00807A9F70E9453040C94B5
:1002D000C2060C940000AF92BF92CF92DF92EF92D1
:1002E000FF920F931F93CF93DF936C017B018B01E0
:1002F000040F151FEB015E01AE18BF08C017D10730
:1003000059F06991D601ED91FC910190F081E02DB9
:10031000C6011995892B79F7C501DF91CF911F91FE
:100320000F91FF90EF90DF90CF90BF90AF90089526
:100330003FB7F8948091A7029091A802A091A902DA
:10034000B091AA0226B5A89B05C02F3F19F00196CF
:10035000A11DB11D3FBFBA2FA92F982F8827BC011F
:10036000CD01620F711D811D911D42E0660F771F47
:10037000881F991F4A95D1F708958F929F92AF9247
:10038000BF92CF92DF92EF92FF924B015C010E94ED
:1003900098016B017C010E9498016C197D098E09FE
:1003A0009F09683E734081059105A8F321E0821AF8
:1003B0009108A108B10888EEC80E83E0D81EE11CA0
:1003C000F11C81149104A104B10429F7FF90EF906E
:1003D000DF90CF90BF90AF909F908F900895209125
:1003E000AD023091AE022817390771F49091AB023B
:1003F0008091AC02981741F0E091AB02F0E0EE5929
:10040000FD4F808190E008958FEF9FEF089508954C
:10041000EF92FF920F931F93CF93DF93DC015C96D3
:10042000ED90FC905D97E114F10479F481E090E0A7
:1004300013969C938E93129790E080E0DF91CF917A
:100440001F910F91FF90EF9008955196ED91FC91BF
:10045000529750968C915097982F90950FB75E9623
:100460002C915E97122F127021FD6095F8942081D7
:10047000112319F1282B2083E7012197F1F728E0B8
:10048000462F50E0308160FF1AC0382B3083E701DF
:100490002197F1F7BA0175956795215089F71123D6
:1004A00081F08081892380830FBF5C968D919C9120
:1004B0000197F1F781E090E0C1CF2923DCCF392308
:1004C000E5CF9081892BEFCF2091AD023091AE0224
:1004D0002817390771F48091AC022091AB0290E0AB
:1004E000805C9F4F821B910960E470E00E94890646
:1004F000089590E080E008952091AD023091AE0221
:1005000028173907B9F49091AB028091AC02981783
:1005100089F0E091AB02F0E0EE59FD4F808120912F
:10052000AB0230E02F5F3F4F2F7333272093AB0296
:1005300090E008958FEF9FEF089590E080E0089598
:10054000CF92DF92EF92FF920F931F93CF93DF939F
:10055000CDB7DEB7C456D1090FB6F894DEBF0FBED3
:10056000CDBFBC01FC0101900020E9F731978F015C
:10057000081B190B8DEF89831A8293E0900F9B83E0
:1005800081E08C831D828CEFF92EF826FB01112768
:10059000CF01861B970B8017910718F48191F826DD
:1005A000F7CFA801CE0106960E94B906E6E0F0E07A
:1005B000EC0FFD1FE00FF11FF082CE0101966C01E0
:1005C0007C010A5F1F4FC7018C199D098017910795
:1005D00040F4F70161917F018FEA92E00E940802E6
:1005E000F2CFCC59DF4F0FB6F894DEBF0FBECDBFB0
:1005F000DF91CF911F910F91FF90EF90DF90CF90FF
:1006000008951F920F920FB60F9211242F933F93CC
:100610008F939F93AF93BF938091A3029091A40275
:10062000A091A502B091A6023091A20223E0230F6F
:100630002D3758F50196A11DB11D2093A20280937C
:10064000A3029093A402A093A502B093A602809166
:10065000A7029091A802A091A902B091AA020196C6
:10066000A11DB11D8093A7029093A802A093A90297
:10067000B093AA02BF91AF919F918F913F912F911B
:100680000F900FBE0F901F90189526E8230F02962B
:10069000A11DB11DD2CF1F920F920FB60F92112440
:1006A0000BB60F922F933F934F935F936F937F936C
:1006B0008F939F93AF93BF93EF93FF93E091AD021E
:1006C000F091AE02309749F0A685B7858585968D65
:1006D00091FF16C09C918923B1F4FF91EF91BF91D6
:1006E000AF919F918F917F916F915F914F913F91CA
:1006F0002F910F900BBE0F900FBE0F901F9018956B
:100700009C91892351F7A389B4899C91858980950F
:1007100089238C93868997890197F1F7608D718D74
:10072000A685B785558538E020E0CB010197F1F724
:10073000822F90E095958795282F4C91452309F0BD
:100740002068315091F7868D81FD20958091AC0213
:1007500090E001968F7399273091AB02381799F08A
:10076000A091AC02B0E0AE59BD4F2C938093AC0287
:10077000828D938D0197F1F7A389B4898C91958926
:10078000892B8C93AACF868D8160868FF1CF282FFD
:1007900030E0F901EA5DFD4F9491F901E052FE4F1E
:1007A000449126563E4FF9012491222309F435C085
:1007B000992311F191509231F8F4E92FF0E0882754
:1007C000EB51FC4F8F4F0C949D0616041A04F7034F
:1007D0000E041204FC031D04230427042D04310419
:1007E00035043B043F04FC03430449044D04809159
:1007F00080008F7780938000E22FF0E0EE0FFF1FE4
:10080000E058FE4FA591B4918FB7F894EC91611127
:1008100048C040954E234C938FBF0895809180002F
:100820008F7DE8CF80918000877FE4CF84B58F777C
:1008300084BDE2CF84B58F7DFBCF8091B0008F77F0
:100840008093B000D9CF8091B0008F7DF9CF809197
:1008500090008F7780939000CFCF809190008F7D14
:10086000F9CF80919000877FF5CF8091A0008F779E
:100870008093A000C1CF8091A0008F7DF9CF80919F
:10088000A000877FF5CF809120018F778093200192
:10089000B3CF809120018F7DF9CF80912001877F98
:1008A000F5CF4E2BB8CF789484B5826084BD84B5E3
:1008B000816084BD85B5826085BD85B5816085BD5B
:1008C00080916E00816080936E0010928100809113
:1008D000810082608093810080918100816080939B
:1008E0008100809180008160809380008091B100C0
:1008F00084608093B1008091B00081608093B000EB
:10090000809191008260809391008091910081603C
:1009100080939100809190008160809390008091FD
:10092000A10082608093A1008091A10081608093EA
:10093000A1008091A00081608093A000809121019E
:100940008260809321018091210181608093210147
:100950008091200181608093200180917A008460E1
:1009600080937A0080917A00826080937A008091EF
:100970007A00816080937A0080917A008068809309
:100980007A001092C1001092CA021092C90210920D
:10099000C8021092C7021092C6021092C5028DE9D9
:1009A00091E09093CC028093CB028091BB0296EFB2
:1009B000980F943048F02EEC280F243028F022ECC9
:1009C000280F283008F061C02DEB30E03093C602CC
:1009D0002093C5022BE931E03093C8022093C7026F
:1009E0002CE231E03093CA022093C902943050F0D7
:1009F0002EEC280F243030F022EC280FF0E0E0E05D
:100A0000283010F4E8E6F0E02081943028F032EC51
:100A1000380F383008F499C031E0232B943048F077
:100A20009EEC980F943028F08E53F0E0E0E0883090
:100A300010F4E8E6F0E020832091BB0236EF320F9D
:100A4000343008F484C08EEC820F843008F47FC008
:100A500082EC820F883008F47DC090E080E09093B3
:100A6000C3028093C202343008F077C02650330BA3
:100A700081E001C0880F2A95EAF78093C402809133
:100A8000CB029091CC020197F1F78091C90290912D
:100A9000CA02892B49F1E091AD02F091AE0282E0E9
:100AA000EF3AF80709F1309739F0A389B4899C919E
:100AB0008589809589238C938091CD028E7F809348
:100AC000CD021092AC021092AB028FEA92E09093AA
:100AD000AE028093AD02E091C202F091C302808128
:100AE0009091C402892B808344E050E068E572E075
:100AF0008FEA92E00E946B0162E370E080E090E098
:100B00000E94BD0144E050E06DE572E08FEA92E0A2
:100B10000E946B0162E370E080E090E00E94BD0102
:100B200080E092E00E94A002C0E0D0E082E392E088
:100B30000E94A00260EA7FE080E090E00E94BD0198
:100B40002097A1F30E940000F1CF34E066CF8BE63E
:100B500090E085CF8DE690E082CF88E0223309F4E3
:100B60008CCF84E0233309F488CF82E0243309F466
:100B700084CF82EC820F883018F42E53330B78CF59
:100B800081E07BCF0F931F93CF93DF931092B2023C
:100B90001092B10288EE93E0A0E0B0E08093B3023F
:100BA0009093B402A093B502B093B6028AE492E0A7
:100BB0009093B0028093AF021092C6021092C502C9
:100BC0001092C8021092C7021092CA021092C90273
:100BD0001092CC021092CB026091CD026E7F6D7F9D
:100BE0006093CD026695617081E0682787E10E947D
:100BF000C70347EF51E0FA01649181EB91E0FC01FA
:100C00002491222399F030E0220F331FF901EA5991
:100C1000FE4FA591B491F901E058FE4F2591349112
:100C20002FB7F8943C91632B6C932FBFFA0144913A
:100C30004093BF02FC018491E82FF0E0EE0FFF1F0C
:100C4000E058FE4F859194919093C1028093C00229
:100C500006EF11E0F8012491C0EBD1E0FE01849190
:100C60008823C9F090E0880F991FFC01EA59FE4FD4
:100C7000A591B491FC01E058FE4F459154913FB7C6
:100C8000F8949C91822F809598239C93FA019081EF
:100C9000892380833FBF8091CD0281FD04C061E044
:100CA00086E10E94C70386E18093BB02F8010491AC
:100CB0000093BC02FE01C491EC2FF0E0EE0FFF1F89
:100CC000E45BFE4F859194919093BE028093BD02A8
:100CD000DF91CF911F910F9108958AE492E0909354
:100CE000B0028093AF028091AD029091AE028F5A14
:100CF000924071F4E091C202F091C3029081809120
:100D0000C4028095892380831092AE021092AD02B6
:100D1000089597FB072E16F4009407D077FD09D0AD
:100D20000E94A50607FC05D03EF4909581959F4F43
:100D30000895709561957F4F0895EE0FFF1F881FEE
:100D40008BBF0790F691E02D1994AA1BBB1B51E1B4
:100D500007C0AA1FBB1FA617B70710F0A61BB70B2B
:100D6000881F991F5A95A9F780959095BC01CD01D0
:100D70000895FB01DC0102C001900D9241505040EA
:100D8000D8F7089511E0C7E3D1E000E006C0802F56
:100D9000FE010E949D062196011DC833D10780E007
:080DA0000807A9F7F894FFCF42
:100DA800BBB6D3ADCAB9D3C3D6C7C4DCBEFCC6EC88
:100DB800D6FACAD6000000000000000000000000BB
:100DC800000000000000000000000000000000001B
:100DD8000000C4E3BAC3CED2B5C4C5F3D3D1000072
:100DE8000000000000000000000008026B019D02E6
:100DF800070264027C02EF013C533E32003C563E3F
:020E08003300B5
:00000001FF
